:1000000045C0000058C0000056C0000054C00000A9
:1000100052C0000050C000004EC000004CC00000A4
:100020004AC0000048C0000046C0000044C00000B4
:1000300042C0000040C000003EC000003CC00000C4
:100040003AC0000038C0000036C0000034C00000D4
:1000500032C0000030C000002EC000002CC00000E4
:100060002AC0000028C0000026C0000024C00000F4
:1000700022C0000020C000001EC000001CC0000004
:100080001AC0000018C0000016C0000011241FBED6
:10009000CFEFD0E1DEBFCDBF11E0A0E0B1E0E0EFF7
:1000A000F1E000E00BBF02C007900D92A031B10754
:1000B000D9F77AD09BC0A4CF2F923F924F925F92F4
:1000C0006F927F928F929F92AF92CF93DF93DC01DA
:1000D0000D901D902D903D904D905D906D907D9078
:1000E0008D909D902D913D914D915D916D917D9162
:1000F000AF93BF938827F8E0EE27AA24D201E3014B
:10010000440C551C661C771C4A1C0826EF739591FD
:100110004926959159269591692695917926040C41
:10012000151C261C371C839524013901A82795919D
:100130003927959189269591992695912927A30F7D
:10014000B81DC91DD21FAA0FBB1FCC1FDD1FAA1DC2
:10015000832C902C212D322D020113012A013B0109
:10016000AD01BE01839580364CF2BF91AF917E9375
:100170006E935E934E933E932E939E928E927E92BA
:100180006E925E924E923E922E921E920E9211248A
:10019000DF91CF91AF909F908F907F906F905F9005
:1001A0004F903F902F900895CF93DF9300D000D0D1
:1001B0001F92CDB7DEB784E098E09A838983898166
:1001C0009A81FC0184918B838B81882F90E09D83A1
:1001D0008C8380E091E070DF80E090E00F900F90E2
:1001E0000F900F900F90DF91CF910895F894FFCF6B
:1001F00000112233445566778899AABBCCDDEEFF07
:10080000030307070B0B0F0F131317171B1B1F1FD8
:10081000E2E2E6E6EAEAEEEEF2F2F6F6FAFAFEFED8
:10082000342F223918030E156C777A61405B564DD0
:10083000A2B9B4AF8E959883FAE1ECF7D6CDC0DBC0
:00000001FF
