S01400004156525F4348414D5F365F322E7372656389
S113000045C0000058C0000056C0000054C00000A5
S113001052C0000050C000004EC000004CC00000A0
S11300204AC0000048C0000046C0000044C00000B0
S113003042C0000040C000003EC000003CC00000C0
S11300403AC0000038C0000036C0000034C00000D0
S113005032C0000030C000002EC000002CC00000E0
S11300602AC0000028C0000026C0000024C00000F0
S113007022C0000020C000001EC000001CC0000000
S11300801AC0000018C0000016C0000011241FBED2
S1130090CFEFD0E1DEBFCDBF11E0A0E0B1E0EAE7F1
S11300A0F1E000E00BBF02C007900D92A830B10749
S11300B0D9F73FD060C0A4CF2F92DC014D915D9160
S11300C06D917D910D901D902D913D91AF93BF93B6
S11300D088272224F8E0EE27DB01660F771F621DD4
S11300E04827EF719591692795917927460F571FF6
S11300F08395B001A8279591192695910926A10DFC
S1130100B01DAA0FBB1FA21D052E142EAB01B901F1
S11301109D018395803504F3BF91AF913E932E9357
S11301201E920E927E936E935E934E9311242F90A3
S11301300895CF93DF9300D000D01F92CDB7DEB7E0
S113014082E098E09A83898389819A81FC01849171
S11301508B838B81882F90E09D838C8380E091E05A
S1130160ABDF80E090E00F900F900F900F900F9016
S10D0170DF91CF910895F894FFCFBA
S10B017A00112233445566779D
S113080001030507090B0D0F11131517191B1D1FE4
S11308101E1508033239242F464D505B6A617C77DC
S9030000FC
