:1000000045C0000058C0000056C0000054C00000A9
:1000100052C0000050C000004EC000004CC00000A4
:100020004AC0000048C0000046C0000044C00000B4
:1000300042C0000040C000003EC000003CC00000C4
:100040003AC0000038C0000036C0000034C00000D4
:1000500032C0000030C000002EC000002CC00000E4
:100060002AC0000028C0000026C0000024C00000F4
:1000700022C0000020C000001EC000001CC0000004
:100080001AC0000018C0000016C0000011241FBED6
:10009000CFEFD0E1DEBFCDBF11E0A0E0B1E0ECE1F9
:1000A000F3E000E00BBF02C007900D92A031B10752
:1000B000D9F726D131C1A4CF000000000000000014
:1000C0000000000000000000000000000000000030
:1000D0000000000000000000000000000000000020
:1000E0000000000000000000000000000000000010
:1000F0000000000000000000000000000000000000
:100100002F923F924F925F926F927F928F929F9227
:10011000AF92CF93DF93DC010D901D902D903D9019
:100120004D905D906D907D908D909D902D913D9125
:100130004D915D916D917D91AF93BF938827F2E0D2
:10014000EE27AA24D201E301440C551C661C771C3F
:100150004A1C0826EF71959149269591592695914B
:10016000692695917926040C151C261C371C83954D
:1001700024013901A82795913927959189269591D0
:10018000992695912927A30FB81DC91DD21FAA0F23
:10019000BB1FCC1FDD1FAA1D832C902C212D322DBF
:1001A000020113012A013B01AD01BE018395803597
:1001B0004CF2BF91AF917E936E935E934E933E93BC
:1001C0002E939E928E927E926E925E924E923E926E
:1001D0002E921E920E921124DF91CF91AF909F909C
:1001E0008F907F906F905F904F903F902F900895E9
:1001F00000000000000000000000000000000000FF
:1002000001030507090B0D0F11131517191B1D1FEE
:100210001E1508033239242F464D505B6A617C77E6
:1002200000000000000000000000000000000000CE
:1002300000000000000000000000000000000000BE
:1002400000000000000000000000000000000000AE
:10025000000000000000000000000000000000009E
:10026000000000000000000000000000000000008E
:10027000000000000000000000000000000000007E
:10028000000000000000000000000000000000006E
:10029000000000000000000000000000000000005E
:1002A000000000000000000000000000000000004E
:1002B000000000000000000000000000000000003E
:1002C000000000000000000000000000000000002E
:1002D000000000000000000000000000000000001E
:1002E000000000000000000000000000000000000E
:1002F00000000000000000000000000000000000FE
:10030000CF93DF93CDB7DEB780E091E0F9DE80E0F8
:0C03100090E0DF91CF910895F894FFCFAA
:10031C0000112233445566778899AABBCCDDEEFFD9
:00000001FF
